:100000000C9434000C9451000C9451000C94510049
:100010000C9451000C9451000C9451000C9451001C
:100020000C9451000C9451000C9451000C9451000C
:100030000C9451000C9451000C9451000C945100FC
:100040000C9451000C9451000C9451000C945100EC
:100050000C9451000C9451000C9451000C945100DC
:100060000C9451000C94510011241FBECFEFD8E026
:10007000DEBFCDBF12E0A0E0B1E0EEE9FEE002C0DD
:1000800005900D92AC38B107D9F724E0ACE8B2E0A6
:1000900001C01D92A339B207E1F70E94EB030C9453
:1000A0004D070C9400009B01AC0160E874E88EE100
:1000B00090E00E942804215031093093C50020931C
:1000C000C40088E18093C10082E08093C00008955D
:1000D0009091C00095FFFCCF8093C6000895CF9308
:1000E000DF93EC018991882319F00E946800FACF10
:1000F000DF91CF91089584B18C6284B924988DB535
:1001000081608DBD8CB58E658CBD08952A988EBD9D
:100110000DB407FEFDCF2A9A08952A9A8FE99FE031
:100120000197F1F700C00000219A29989FEF2DEE6A
:1001300082E0915020408040E1F700C0000089E358
:100140000E9486009AE69A95F1F700C08CE10E9421
:1001500086002AE62A95F1F700C082E50E94860013
:100160008AE68A95F1F700C089E60E9486009FEF33
:1001700023EC89E0915020408040E1F700C000006E
:1001800084E70E9486009AE69A95F1F700C088E31A
:100190000E9486002AE62A95F1F700C08FE00E94AF
:1001A00086008AE68A95F1F700C081E00E94860009
:1001B0008FE99FE00197F1F700C0000086E00E9400
:1001C00086009AE69A95F1F700C02A9A0895299830
:1001D000813011F48FE003C0811107C088E00E94D4
:1001E00086008AE68A95F1F700C00895299881E093
:1001F0000E9486008FE99FE00197F1F700C00000A0
:100200000895299A0E9486008AE68A95F1F700C02F
:1002100008952998603108F06FE0811180E4860F1D
:1002200080680E9486008AE68A95F1F700C00895EA
:10023000DF92EF92FF920F931F93CF93DF93CDB78F
:10024000DEB7A1970FB6F894DEBF0FBECDBF8CA569
:1002500060E0813031F480E00E94090191E2E92EF2
:1002600005C08BA50E94090181E1E82E6E2D70E08A
:100270009E01215D3F4F4DA55EA5CE0101960E94D6
:100280005904D82E8E010F5F1F4FF12CFD1410F072
:1002900080E202C0F80180810E940101F394EF1412
:1002A00069F0E0E1FE1207C0FCA5F13021F460E046
:1002B00081E00E9409010F5F1F4FE8CF80E090E0CE
:1002C000A1960FB6F894DEBF0FBECDBFDF91CF91E0
:1002D0001F910F91FF90EF90DF9008952998813042
:1002E00011F080E001C082E0613011F4816001C052
:1002F0008E7F8C600E9486008AE68A95F1F700C0A6
:10030000089587EB91E00E946F0089E891E00E94D8
:100310006F0080EE91E00E946F0080E0089587EB0F
:1003200091E00E946F0080E791E00E946F0080EEF4
:1003300091E00E946F0080E0089587EB91E00E94B9
:100340006F0087E591E00E946F0080EE91E00E94CF
:100350006F008FEF089587EB91E00E946F008FE3AD
:1003600091E00E946F0080EE91E00E946F0080E0BB
:10037000089587EB91E00E946F008AE291E00E946D
:100380006F0080EE91E00E946F0080E0089587EB9F
:1003900091E00E946F0086E191E00E946F0080EE84
:1003A00091E00E946F0080E0089587EB91E00E9449
:1003B0006F0080E091E00E946F0080EE91E00E946B
:1003C0006F0080E0089587EB91E00E946F0085EA5E
:1003D00091E00E946F0080EE91E00E946F0080E04B
:1003E000089587EB91E00E946F0085E991E00E94FB
:1003F0006F0080EE91E00E946F0080E008958AB166
:100400008AB98BB18C638BB908950F931F93CF93E7
:10041000DF938B01EA012197AE01BC01C8010E9464
:100420004A04C00FD11F1882DF91CF911F910F9105
:1004300008950E94FF010E947B000E948D0083EEC0
:1004400091E09F938F931F921F920E94180182EF59
:1004500091E09F938F931F9281E08F930E941801E8
:100460008DB79EB708960FB6F8949EBF0FBE8DBF8E
:100470000895DF92EF92FF920F931F93CF93DF9334
:10048000CDB7DEB7E6970FB6F894DEBF0FBECDBF8F
:100490007C0185E2E3E2F2E0DE01119601900D922B
:1004A0008A95E1F781E1F70111928A95E9F70E94B7
:1004B000F60082E092E09F938F931F921F920E941A
:1004C00018010F900F900F900F9000E010E0DD24C6
:1004D000D394FF92EF921F92DF920E941801612F36
:1004E00081E00E9409010F900F900F900F904A99A0
:1004F00010C04A9BFECFFFEF20E782E0F150204082
:100500008040E1F700C00000043208F0A2C00F5F95
:10051000A3C04B9910C04B9BFECF9FEFE0E7F2E0EA
:100520009150E040F040E1F700C00000002309F4E2
:1005300092C0015091C04C994BC088EC4C9936C088
:10054000EFE3FCE93197F1F700C000008150B1F70B
:10055000FFEF20E782E0F15020408040E1F700C04B
:10056000000041E150E0BE016A5D7F4FC7010E947B
:100570000502C7010E946F000E94F6008EE092E023
:100580009F938F931F9281E08F930E9418019FEF9A
:10059000E3EDF0E39150E040F040E1F700C00000EF
:1005A0000F900F900F900F9081E062C0113108F012
:1005B00053C02FEF83EC99E0215080409040E1F749
:1005C00000C000001F5FF701E10FF11D10823CC069
:1005D0004D9942C088EC4D992BC0EFE3FCE931976F
:1005E000F1F700C000008150B1F7FFEF20E782E093
:1005F000F15020408040E1F700C000000E94F6006A
:1006000085E192E09F938F931F9281E08F930E94E8
:1006100018019FEFE3EDF0E39150E040F040E1F787
:1006200000C000000F900F900F900F9082E020C04C
:10063000112391F02FEF83EC99E0215080409040FE
:10064000E1F700C000001150612F81E00E94090114
:1006500003C000E001C003E2E1E0F0E0EC0FFD1FA9
:10066000E00FF11D8081F701E10FF11D808331CF93
:10067000E6960FB6F894DEBF0FBECDBFDF91CF91E7
:100680001F910F91FF90EF90DF9008954D993EC01C
:100690000E94F60080918E028230F9F0833001F1E1
:1006A0008130A1F528E432E03F932F931F928F937E
:1006B0000E9418012FEF87EA91E621508040904078
:1006C000E1F700C000000E94F6000F900F900F901D
:1006D0000F9083E894E00C94390285E592E002C023
:1006E00082E692E09F938F931F9281E08F930E9406
:1006F00018012FEF87EA91E6215080409040E1F702
:1007000000C000000F900F900F900F9008954C9B29
:1007100005C04D99FCCF0E944603F9CF4C9BFECFFC
:100720002FEF80E792E0215080409040E1F700C039
:10073000000080918E028F5F80938E0280918E02E6
:10074000843018F081E080938E0280E00895EC01FF
:100750002FEF89E698E1215080409040E1F700C0FA
:10076000000088E7E82E82E0F82EAA24A39402E88D
:1007700012E092E0B92E2EE6C22E22E0D22E0E9486
:10078000870380918E02823071F08330B1F0813026
:10079000B1F70E94F600DF92CF921F921F920E9443
:1007A0001801188213C00E94F600FF92EF921F9268
:1007B0001F920E941801A88209C00E94F6001F9390
:1007C0000F931F921F920E941801B8820F900F90F2
:1007D0000F900F90D4CF60E072EC81E090E00E9427
:1007E00053000E9481010E94190263E874E08DE8C1
:1007F00092E00E94A70380938D028130B1F030F027
:10080000823009F582E00E94D5011AC08FE892E09B
:100810000E94E30180938C024FE852E063E874E0A9
:1008200080918D020E94B9010BC06FE872E081E0F7
:100830000E94C70180938C028FE892E00E94F10130
:1008400080938C02D2CF8CEB91E00E946F00CDCFD1
:10085000A1E21A2EAA1BBB1BFD010DC0AA1FBB1FC4
:10086000EE1FFF1FA217B307E407F50720F0A21B36
:10087000B30BE40BF50B661F771F881F991F1A94A3
:1008800069F760957095809590959B01AC01BD01CD
:10089000CF010895FB01DC014150504048F0019028
:1008A0000D920020C9F701C01D9241505040E0F761
:1008B0000895AEE0B0E0EFE5F4E00C9424078C017D
:1008C000FA0186E08C831A83098377FF02C060E017
:1008D00070E8CB0101979E838D83A901BF01CE01F2
:1008E00001960E9485044D815E8157FD0AC02F81CB
:1008F0003885421753070CF49A01F801E20FF31FF1
:1009000010822E96E4E00C944007ABE0B0E0EBE8F8
:10091000F4E00C9416076C017B018A01FC0117823C
:100920001682838181FFCCC1CE0101963C01F60184
:100930009381F70193FD859193FF81917F01882336
:1009400009F4BAC1853239F493FD859193FF819101
:100950007F01853229F4B60190E00E947C06E7CF42
:10096000912C212C312CFFE1F315D8F08B3279F04A
:1009700038F4803279F08332A1F4232D20611DC038
:100980008D3261F0803369F4232D216016C0832DF0
:100990008260382EE32DE4603E2E2AC0F32DF860ED
:1009A0001DC037FC2DC020ED280F2A3040F08E32BC
:1009B000B9F436FC81C1232D2064322E19C036FED5
:1009C00006C08AE0989E200D1124922E11C0EAE004
:1009D0002E9E200D1124222EF32DF0623F2E08C0F2
:1009E0008C3621F4832D8068382E02C0883641F47D
:1009F000F70193FD859193FF81917F018111B3CF21
:100A0000982F9F7D9554933028F40C5F1F4F9FE3E0
:100A100099830DC0833631F0833771F0833509F047
:100A200059C021C0F801808189830E5F1F4F88243F
:100A30008394912C530113C02801F2E04F0E511CF6
:100A4000F801A080B18036FE03C0692D70E002C0BD
:100A50006FEF7FEFC5010E9471064C018201F32DFB
:100A6000FF773F2E16C0280122E0420E511CF801EC
:100A7000A080B18036FE03C0692D70E002C06FEF28
:100A80007FEFC5010E9466064C01F32DF0683F2EF2
:100A9000820133FC1BC0822D90E088169906B0F4C9
:100AA000B60180E290E00E947C062A94F4CFF50122
:100AB00037FC859137FE81915F01B60190E00E947D
:100AC0007C0621102A9421E0821A91088114910455
:100AD00071F7E8C0843611F0893641F5F80137FE28
:100AE00007C060817181828193810C5F1F4F08C0B4
:100AF00060817181072E000C880B990B0E5F1F4FD0
:100B0000F32DFF763F2E97FF09C090958095709545
:100B100061957F4F8F4F9F4FF0683F2E2AE030E066
:100B2000A3010E94B806882E861845C0853731F487
:100B3000232D2F7EB22E2AE030E025C0932D997F01
:100B4000B92E8F36C1F018F4883579F0B5C08037EA
:100B500019F0883721F0B0C0E92FE061BE2EB4FE55
:100B60000DC0FB2DF460BF2E09C034FE0AC0292F32
:100B70002660B22E06C028E030E005C020E130E05B
:100B800002C020E132E0F801B7FE07C06081718148
:100B9000828193810C5F1F4F06C06081718180E06C
:100BA00090E00E5F1F4FA3010E94B806882E8618A2
:100BB000FB2DFF773F2E36FE0DC0232D2E7FA22E5C
:100BC000891458F434FE0BC032FC09C0832D8E7E8C
:100BD000A82E05C0B82CA32C03C0B82C01C0B92C7A
:100BE000A4FE0FC0FE01E80DF11D8081803321F4C9
:100BF0009A2D997EA92E09C0A2FE06C0B394B39483
:100C000004C08A2D867809F0B394A3FC11C0A0FE1D
:100C100006C0B21488F4280C922C9B180EC0B21493
:100C200060F4B60180E290E00E947C06B394F7CFB6
:100C3000B21418F42B1802C0982C212CA4FE10C05A
:100C4000B60180E390E00E947C06A2FE17C0A1FCE2
:100C500003C088E790E002C088E590E0B6010CC0D0
:100C60008A2D867859F0A1FE02C08BE201C080E295
:100C7000A7FC8DE2B60190E00E947C06891438F44E
:100C8000B60180E390E00E947C069A94F7CF8A94A4
:100C9000F301E80DF11D8081B60190E00E947C0611
:100CA0008110F5CF222009F442CEB60180E290E017
:100CB0000E947C062A94F6CFF6018681978102C0B5
:100CC0008FEF9FEF2B96E2E10C943207FC01059029
:100CD000615070400110D8F7809590958E0F9F1F3E
:100CE0000895FC016150704001900110D8F7809583
:100CF00090958E0F9F1F08950F931F93CF93DF93AF
:100D0000FB01238121FD03C08FEF9FEF2CC022FF49
:100D100016C046815781248135814217530744F418
:100D2000A081B1819D012F5F3F4F318320838C9340
:100D3000268137812F5F3F4F3783268314C08B0175
:100D4000EC01FB010084F185E02D0995892BE1F68A
:100D5000D80116968D919C911797019617969C93A2
:100D60008E931697CE01DF91CF911F910F91089529
:100D7000FA01AA27283051F1203181F1E8946F93CC
:100D80006E7F6E5F7F4F8F4F9F4FAF4FB1E03ED072
:100D9000B4E03CD0670F781F891F9A1FA11D680F10
:100DA000791F8A1F911DA11D6A0F711D811D911D43
:100DB000A11D20D009F468943F912AE0269F1124B8
:100DC0003019305D3193DEF6CF010895462F47701C
:100DD000405D4193B3E00FD0C9F7F6CF462F4F7077
:100DE000405D4A3318F0495D31FD4052419302D0D5
:100DF000A9F7EACFB4E0A69597958795779567957B
:100E0000BA95C9F700976105710508959B01AC017A
:100E10000A2E06945795479537952795BA95C9F7A1
:100E2000620F731F841F951FA01D08952F923F927C
:100E30004F925F926F927F928F929F92AF92BF92EA
:100E4000CF92DF92EF92FF920F931F93CF93DF9396
:100E5000CDB7DEB7CA1BDB0B0FB6F894DEBF0FBEF3
:100E6000CDBF09942A88398848885F846E847D8440
:100E70008C849B84AA84B984C884DF80EE80FD8042
:100E80000C811B81AA81B981CE0FD11D0FB6F894B8
:0E0E9000DEBF0FBECDBFED010895F894FFCF79
:100E9E00656570726F6D5F64656C6574655F636FB9
:100EAE006D6D616E6400656570726F6D5F6C6F6104
:100EBE00645F636F6D6D616E6400656570726F6DFA
:100ECE005F73746F72655F636F6D6D616E640065E5
:100EDE006570726F6D5F6765745F636F6D6D616E68
:100EEE00645F6E616D6500656570726F6D5F6765DD
:100EFE00745F636F6D6D616E645F696E64657800BB
:100F0E00656570726F6D5F6765745F636F6D6D6140
:100F1E006E645F636F756E7400656570726F6D5F82
:100F2E00696E69740069725F706C61795F636F6D71
:100F3E006D616E640069725F7265636F72645F6388
:100F4E006F6D6D616E64005442443A00556E6B6E67
:100F5E006F776E2072657475726E20636F64652094
:100F6E0075695F6765745F73656C656374696F6ED1
:100F7E000D0A002020202057454C434F4D45202080
:100F8E002000505245535320425554544F4E205337
:100F9E003300454E544552204E414D453A00534183
:100FAE00564544210043414E43454C4C494E472E35
:100FBE002E2E006162636465666768696A6B6C6D8C
:100FCE006E6F707172737475767778797A3031329C
:100FDE0033343536373839005245434F5244494E33
:100FEE00472E2E2E005245504C4159494E472E2E1B
:100FFE002E0044454C4554494E472E2E2E00312E80
:10100E00205245434F524400322E205245504C41FF
:0C101E005900332E2044454C4554450039
:00000001FF
